:0300000002006695
:0C006600787FE4F6D8FD75811B0200AD28
:10004400020800000C0A0006000B00100015001046
:0E005400000B021A0000021800000216000045
:0701800075D7AE75D6FB2216
:0F016200438E04120180438E1043AF04D2AF22AC
:10002500E4FDFCC3ED9FEC9E50147B787A00EB1B3E
:0E00350070011AEB4A70F70DBD00010C80E55A
:01004300229A
:1000030020B21E7F037E0012002520B21430B2FD01
:10001300E509450870047F0180027F007508008FA1
:020023000922B0
:05018700D2B20201628A
:030063000200F2A6
:1000F200C0E0C0D075D000C000C006E5096401456B
:10010200087051051BE51B7002051A64C8451A7078
:10011200100517E51770020516751A00751B00D237
:1001220091E51925E0240AF8E6FE08E6B51B07E585
:100132001AB50602C291E517641445167016F51633
:10014200F5170519E51970020518640645187004BB
:10015200F518F519120180D006D000D0D0D0E032C7
:0F0171001201871200037F0A7E0012002580F41E
:10007200020171E493A3F8E493A34003F68001F232
:1000820008DFF48029E493A3F85407240CC8C3338F
:10009200C4540F4420C8834004F456800146F6DF5E
:1000A200E4800B0102040810204080900044E47EAA
:1000B200019360BCA3FF543F30E509541FFEE49353
:1000C200A360010ECF54C025E060A840B8E493A31A
:1000D200FAE493A3F8E493A3C8C582C8CAC583CA45
:1000E200F0A3C8C582C8CAC583CADFE9DEE780BEFD
:01006200009D
:00000001FF
