:0300000002006695
:0C006600787FE4F6D8FD75816D0200ADD6
:100329000A313F065B4F666D7D077F6F023E000015
:10033900012100013D00013C0001220001440004AB
:100349006A00000000013B000225000008270006A2
:10035900000B0010000B0247000002450000022FAD
:100369000000C100022300320242000002400000E6
:040421007F0A7E00D0
:10042500D3EF9400EE9400400B7D72DDFEEF1F705C
:04043500EF1E80EC4A
:0104390022A0
:0B000E00E4F5B175B210F580C2B42219
:1004020075B406E4F5B3C2C1C2C2438E80758901D8
:0F041200758A18758CFCC28DD28CD2A9D2AF22FC
:0700030075D7AE75D6FB2294
:0F044A00438E04120003438E1043AF04D2AF223F
:0300560002044A57
:10003F00438920E4F58DF58BD28ED2AB438F10D24E
:02004F00AF22DE
:10043A007594FFE4F593F595759608D2A3F5802295
:10001E00E4F540F541D2B4120421C2B41204210514
:10002E0041E54170020540C394FFE540940040E570
:01003E00229F
:03000B000202D618
:1002D600C0E0C0D075D000C000C28C758A18758C7D
:1002E600FCD28C3000320543E54370020542D394BC
:1002F60064E542648094804006754200754300D3ED
:10030600E5439524E5236480F8E54264809850042B
:10031600D2C18008C2C18004C2C1C2C2D000D0D03E
:03032600D0E032F2
:0300630002020294
:10020200C0E0C0D075D000C000C006E5266401453C
:100212002570510548E5487002054764C845477096
:10022200100530E5307002052F754700754800D281
:1002320091E54625E02427F8E6FE08E6B54807E5FD
:1002420047B50602C291E5306415452F7016F52FA9
:10025200F5300546E54670020545640445457004DF
:10026200F545F546120003D006D000D0D0D0E032DA
:10037A007E01E53C6401703CFDE4FCEFC313FF74AD
:10038A00492EF8E6FBD394064008EB940A5003433F
:10039A0007800E0CBC08E4746A2DF8A6070DBD048C
:1003AA00D8E56DF4B56C0AE56BB4FF0575440180B8
:0403BA0000E4F53C2A
:0103BE00221C
:03001B0002005987
:030059000521324C
:030053000203BFE6
:1003BF00C0E0C0D075D000C000E53D6029E521D375
:1003CF0094204009E521943F50037522007449257C
:1003DF0022F8A6217521000522E522B4210E7522EF
:1003EF0000753C018006753D01752100D000D0D00D
:0303FF00D0E03219
:10027200E56C24F9604524F2602224D5601B24FC3D
:10028200601424FE600A04704A7525007526012256
:10029200E4F525F52622D20022C20022740A252482
:1002A200F524E43523F523D3E5249464E52364801F
:1002B2009480401F7523007524642274F62524F56A
:1002C2002474FF3523F523C3648094805005E4F53C
:0402D20023F52422CA
:10017D0012000E12040212005612043A12003F121F
:10018D00037AE544B4010C120272E4F54412001E28
:10019D00856C3B300055C2A3753E00753F06E4F5F6
:1001AD0080853FA0E53F6406453EAE23AF24700B2E
:1001BD00FC7D641200F274312F80117C007D0A12D7
:1001CD0000F27C007D0A1200F274312DF8E6F58004
:1001DD007F017E00120425053FE53F7002053EC3F9
:1001ED009408E53E940040B6E4F580D2A3853B80AB
:0501FD00120421808ABC
:1000720002017DE493A3F8E493A34003F68001F226
:1000820008DFF48029E493A3F85407240CC8C3338F
:10009200C4540F4420C8834004F456800146F6DF5E
:1000A200E4800B0102040810204080900329E47EC2
:1000B200019360BCA3FF543F30E509541FFEE49353
:1000C200A360010ECF54C025E060A840B8E493A31A
:1000D200FAE493A3F8E493A3C8C582C8CAC583CA45
:1000E200F0A3C8C582C8CAC583CADFE9DEE780BEFD
:010379000083
:1000F200C2D5EC30E709B2D5E4C39DFDE49CFCEE29
:1001020030E715B2D5E4C39FFFE49EFE120128C377
:10011200E49DFDE49CFC800312012830D507C3E472
:060122009FFFE49EFE2297
:10012800BC000BBE0029EF8DF084FFADF022E4CCBB
:10013800F875F008EF2FFFEE33FEEC33FCEE9DEC84
:10014800984005FCEE9DFE0FD5F0E9E4CEFD22EDCA
:10015800F8F5F0EE8420D21CFEADF075F008EF2F14
:10016800FFED33FD4007985006D5F0F222C398FD05
:050178000FD5F0EA22A2
:00000001FF
