:0300000002000EED
:0C000E00787FE4F6D8FD75811B020055D8
:10014300020800000C0A00060009000F0015000F4A
:0E0153000009021A0000021800000216000047
:07000300758CFF758AA42231
:10016200D2AFD2A9538E7F5389F043890112000383
:03017200D28C220A
:10012400E4FDFCC3ED9FEC9E50147B787A00EB1B3E
:0E01340070011AEB4A70F70DBD00010C80E55A
:01014200229A
:1001020020B21E7F037E0012012420B21430B2FD01
:10011200E509450870047F0180027F007508008FA1
:020122000922B0
:05018400D2B20201628D
:03000B0002009A56
:10009A00C0E0C0D075D000E509640145087051057B
:1000AA001BE51B7002051A64C8451A70100517E58E
:1000BA001770020516751A00751B00D291E51925ED
:1000CA00E0240AF8E6FE08E6B51B07E51AB50602BB
:1000DA00C291E517641445167016F516F517051939
:1000EA00E51970020518640645187004F518F51923
:0800FA00120003D0D0D0E03267
:0F0175001201841201027F0A7E0012012480F41D
:10001A00020175E493A3F8E493A34003F68001F286
:10002A0008DFF48029E493A3F85407240CC8C333E7
:10003A00C4540F4420C8834004F456800146F6DFB6
:10004A00E4800B0102040810204080900143E47E02
:10005A00019360BCA3FF543F30E509541FFEE493AB
:10006A00A360010ECF54C025E060A840B8E493A372
:10007A00FAE493A3F8E493A3C8C582C8CAC583CA9D
:10008A00F0A3C8C582C8CAC583CADFE9DEE780BE55
:01016100009D
:00000001FF
