:03000000020056A5
:0C005600787FE4F6D8FD75813102009D32
:10003C00010800010B00010A00010900010C000479
:05004C002E0000000081
:10001E00D3EF9400EE940040147D6E7C00ED1D70C5
:0D002E00011CED4C70F7EF1F70E61E80E323
:01003B0022A2
:10016300438920E4F58DF58BD28ED2AB438F10D229
:02017300AF22B9
:100175007594FFE4F593F595759608D2A3F580225D
:100125007E01E50A64017035FDE4FCEFC313FF743D
:100135000D2EF8E6FBD394064008EB940A500343D2
:1001450007800E0CBC08E4742E2DF8A6070DBD041F
:0D015500D8E531F4B53006750C01E4F50A6B
:01016200227A
:03001B000201855A
:0301850005083238
:030053000200E2C6
:1000E200C0E0C0D075D000C000E50B6029E508D3A0
:1000F20094204009E508943F5003750900740D25CA
:1001020009F8A6087508000509E509B4210E750964
:1001120000750A018006750B01750800D000D0D069
:03012200D0E032F8
:10000300120175120163120125E50CB401F8853064
:0600130080E4F50C80F012
:10006200020003E493A3F8E493A34003F68001F2B1
:1000720008DFF48029E493A3F85407240CC8C3339F
:10008200C4540F4420C8834004F456800146F6DF6E
:10009200E4800B010204081020408090003CE47EC2
:1000A200019360BCA3FF543F30E509541FFEE49363
:1000B200A360010ECF54C025E060A840B8E493A32A
:1000C200FAE493A3F8E493A3C8C582C8CAC583CA55
:1000D200F0A3C8C582C8CAC583CADFE9DEE780BE0D
:0100510000AE
:00000001FF
