:0300000002000EED
:0C000E00787FE4F6D8FD758120020055D3
:0A018200C10002080032020A00006A
:040169007F0A7E008B
:10016D00D3EF9400EE9400400B7D72DDFEEF1F7017
:04017D00EF1E80EC05
:01018100225B
:10014A0075B406E4F5B3C2C1C2C2438E8075890193
:0F015A00758A18758CFCC28DD28CD2A9D2AF22B7
:10009A0020970B120169209702B2003097FD20B217
:1000AA002712016920B21E74FB2509F50974FF3570
:1000BA0008F508D3E5099400E508648094805005A2
:1000CA00E4F508F50930B2FD20B32712016920B31F
:1000DA001E74052509F509E43508F508C3E50994F0
:1000EA0064E50864809480400675080075096430E8
:0300FA00B3FD2231
:03000B000200FDF3
:1000FD00C0E0C0D075D000C000C28C758A18758C58
:10010D00FCD28C300030050BE50B7002050AD39440
:10011D0064E50A648094804006750A00750B00D36F
:10012D00E50B9509E5086480F8E50A6480985004AC
:0D013D00D2C18002C2C1D000D0D0D0E032CB
:0800030012014A12009A80FB71
:10001A00020003E493A3F8E493A34003F68001F2F9
:10002A0008DFF48029E493A3F85407240CC8C333E7
:10003A00C4540F4420C8834004F456800146F6DFB6
:10004A00E4800B0102040810204080900182E47EC3
:10005A00019360BCA3FF543F30E509541FFEE493AB
:10006A00A360010ECF54C025E060A840B8E493A372
:10007A00FAE493A3F8E493A3C8C582C8CAC583CA9D
:10008A00F0A3C8C582C8CAC583CADFE9DEE780BE55
:01018C000072
:00000001FF
