:03000000020003F8
:0C000300787FE4F6D8FD75810902004A00
:0400E800020800000A
:0B00DD00E4F5B175B210F580C2B4224A
:0400B0007F0A7E0045
:1000B400D3EF9400EE9400400B7D72DDFEEF1F70D1
:0400C400EF1E80ECBF
:0100C8002215
:10008F00E4F508F509D2B41200B0C2B41200B005FD
:10009F0009E50970020508C394FFE508940040E5DF
:0100AF00222E
:1000C9001200DD20B2FD1200B020B2F730B2FD12ED
:0400D900008F80EF25
:10000F000200C9E493A3F8E493A34003F68001F23E
:10001F0008DFF48029E493A3F85407240CC8C333F2
:10002F00C4540F4420C8834004F456800146F6DFC1
:10003F00E4800B01020408102040809000E8E47E69
:10004F00019360BCA3FF543F30E509541FFEE493B6
:10005F00A360010ECF54C025E060A840B8E493A37D
:10006F00FAE493A3F8E493A3C8C582C8CAC583CAA8
:10007F00F0A3C8C582C8CAC583CADFE9DEE780BE60
:0100EC000013
:00000001FF
